2024-10-20 20:33:11.440718 IP 10.118.33.38.57621 > 10.118.255.255.57621: UDP, length 40
	0x0000:  ffff ffff ffff 3ac2 13fa c901 0800 4500
	0x0010:  0044 e6a9 4000 4011 1dee 0a76 2126 0a76
	0x0020:  ffff e115 e115 0030 33b9 5370 6f74 5564
	0x0030:  7030 d109 eb2c 1965 6abb 0001 0000 d3cc
	0x0040:  5772 772d 6973 759c 8adc a890 95b8 c6ec
	0x0050:  f936
2024-10-20 20:33:11.443603 IP6 fe80::32b6:4f0f:e886:f6ed > ff02::1: ICMP6, router advertisement, length 80
	0x0000:  3333 0000 0001 30b6 4f86 fe2d 86dd 6000
	0x0010:  0000 0050 3aff fe80 0000 0000 0000 32b6
	0x0020:  4f0f e886 f6ed ff02 0000 0000 0000 0000
	0x0030:  0000 0000 0001 8600 e3e3 4000 0708 0000
	0x0040:  0000 0000 0000 0101 30b6 4f86 fe2d 1903
	0x0050:  0000 0000 0708 2620 008d 8000 0000 0aba
	0x0060:  00ca daba 00ec 0304 40c0 0027 8d00 0009
	0x0070:  3a80 0000 0000 2620 008d 8000 1058 0000
	0x0080:  0000 0000 0000
2024-10-20 20:33:11.445583 IP6 fe80::32b6:4f0f:e886:f6ed > ff02::1: ICMP6, router advertisement, length 80
	0x0000:  3333 0000 0001 30b6 4f86 fe2d 86dd 6000
	0x0010:  0000 0050 3aff fe80 0000 0000 0000 32b6
	0x0020:  4f0f e886 f6ed ff02 0000 0000 0000 0000
	0x0030:  0000 0000 0001 8600 e3e3 4000 0708 0000
	0x0040:  0000 0000 0000 0101 30b6 4f86 fe2d 1903
	0x0050:  0000 0000 0708 2620 008d 8000 0000 0aba
	0x0060:  00ca daba 00ec 0304 40c0 0027 8d00 0009
	0x0070:  3a80 0000 0000 2620 008d 8000 1058 0000
	0x0080:  0000 0000 0000
