2024-11-04 02:40:59.280240 IP acd41229045323768736536.wireless.rit.edu.ssdp > 239.255.255.250.stun-p1: UDP, length 383
	0x0000:  0100 5e7f fffa 30b6 4f86 f6ed 0800 4500
	0x0010:  019b e570 0000 fe11 d3ff 8115 90d1 efff
	0x0020:  fffa 076c 07c6 0187 793d 4e4f 5449 4659
	0x0030:  202a 2048 5454 502f 312e 310d 0a48 4f53
	0x0040:  543a 2032 3339 2e32 3535 2e32 3535 2e32
	0x0050:  3530 3a31 3930 300d 0a53 6572 7665 723a
	0x0060:  2055 506e 502f 312e 300d 0a4c 6f63 6174
	0x0070:  696f 6e3a 2031 3239 2e32 312e 3134 342e
	0x0080:  3230 390d 0a4e 543a 2075 726e 3a62 616d
	0x0090:  6275 6c61 622d 636f 6d3a 6465 7669 6365
	0x00a0:  3a33 6470 7269 6e74 6572 3a31 0d0a 5553
	0x00b0:  4e3a 2030 3150 3039 4134 3431 3630 3137
	0x00c0:  3431 0d0a 4361 6368 652d 436f 6e74 726f
	0x00d0:  6c3a 206d 6178 2d61 6765 3d31 3830 300d
	0x00e0:  0a44 6576 4d6f 6465 6c2e 6261 6d62 752e
	0x00f0:  636f 6d3a 2043 3132 0d0a 4465 764e 616d
	0x0100:  652e 6261 6d62 752e 636f 6d3a 2050 3153
	0x0110:  0d0a 4465 7653 6967 6e61 6c2e 6261 6d62
	0x0120:  752e 636f 6d3a 202d 3632 0d0a 4465 7643
	0x0130:  6f6e 6e65 6374 2e62 616d 6275 2e63 6f6d
	0x0140:  3a20 636c 6f75 640d 0a44 6576 4269 6e64
	0x0150:  2e62 616d 6275 2e63 6f6d 3a20 6f63 6375
	0x0160:  7069 6564 0d0a 4465 7673 6563 6c69 6e6b
	0x0170:  2e62 616d 6275 2e63 6f6d 3a20 7365 6375
	0x0180:  7265 0d0a 4465 7656 6572 7369 6f6e 2e62
	0x0190:  616d 6275 2e63 6f6d 3a20 3031 2e30 362e
	0x01a0:  3031 2e30 320d 0a0d 0a
2024-11-04 02:40:59.363111 IP acd41229045323768737778.wireless.rit.edu.57748 > 239.255.255.250.15600: UDP, length 35
	0x0000:  0100 5e7f fffa 30b6 4f86 f6ed 0800 4500
	0x0010:  003f e68e 4000 3f11 878d 8115 5c82 efff
	0x0020:  fffa e194 3cf0 002b cb49 5345 4152 4348
	0x0030:  2042 5344 502f 302e 310a 4445 5649 4345
	0x0040:  3d30 0a53 4552 5649 4345 3d31 0a
2024-11-04 02:40:59.480249 IP rm234836162123790.wireless.rit.edu.39141 > 129.21.91.255.15600: UDP, length 35
	0x0000:  ffff ffff ffff b8b4 09dc 3ca4 0800 4500
	0x0010:  003f 5dee 4000 4011 2494 8115 5a02 8115
	0x0020:  5bff 98e5 3cf0 002b 295f 5345 4152 4348
	0x0030:  2042 5344 502f 302e 310a 4445 5649 4345
	0x0040:  3d30 0a53 4552 5649 4345 3d31 0a
2024-11-04 02:40:59.480265 IP 10.118.32.186.57621 > 10.118.255.255.57621: UDP, length 40
	0x0000:  ffff ffff ffff 8274 b310 9973 0800 4500
	0x0010:  0044 ad02 0000 4011 9801 0a76 20ba 0a76
	0x0020:  ffff e115 e115 0030 3345 5370 6f74 5564
	0x0030:  7030 644a afa4 9c08 ef18 0001 0000 8075
	0x0040:  a43b bd52 fa64 a8d3 906c 2cd4 f553 576b
	0x0050:  1db0
2024-11-04 02:40:59.481352 IP 10.118.32.186.57621 > 10.118.255.255.57621: UDP, length 40
	0x0000:  ffff ffff ffff 8274 b310 9973 0800 4500
	0x0010:  0044 ce30 0000 4011 76d3 0a76 20ba 0a76
	0x0020:  ffff e115 e115 0030 3345 5370 6f74 5564
	0x0030:  7030 644a afa4 9c08 ef18 0001 0000 8075
	0x0040:  a43b bd52 fa64 a8d3 906c 2cd4 f553 576b
	0x0050:  1db0
2024-11-04 02:40:59.593398 IP rtztv7.rit.edu.58255 > 239.255.255.250.15600: UDP, length 35
	0x0000:  0100 5e7f fffa 30b6 4f86 f6ed 0800 4500
	0x0010:  003f 92ca 4000 3f11 6b2a 8115 cca9 efff
	0x0020:  fffa e38f 3cf0 002b 5927 5345 4152 4348
	0x0030:  2042 5344 502f 302e 310a 4445 5649 4345
	0x0040:  3d30 0a53 4552 5649 4345 3d31 0a
2024-11-04 02:40:59.679156 IP rm2348361621752.rit.edu.39176 > 239.255.255.250.15600: UDP, length 35
	0x0000:  0100 5e7f fffa 30b6 4f86 f6ed 0800 4500
	0x0010:  003f f633 4000 3f11 07f6 8115 cc74 efff
	0x0020:  fffa 9908 3cf0 002b a3e3 5345 4152 4348
	0x0030:  2042 5344 502f 302e 310a 4445 5649 4345
	0x0040:  3d30 0a53 4552 5649 4345 3d31 0a
2024-11-04 02:40:59.782133 IP ttrrlasmarttv.rit.edu.33499 > 239.255.255.250.15600: UDP, length 35
	0x0000:  0100 5e7f fffa 30b6 4f86 f6ed 0800 4500
	0x0010:  003f c074 4000 3f11 e1e2 8115 2847 efff
	0x0020:  fffa 82db 3cf0 002b 5e3e 5345 4152 4348
	0x0030:  2042 5344 502f 302e 310a 4445 5649 4345
	0x0040:  3d30 0a53 4552 5649 4345 3d31 0a
2024-11-04 02:40:59.866446 IP rtztv11.rit.edu.42340 > 239.255.255.250.15600: UDP, length 35
	0x0000:  0100 5e7f fffa 30b6 4f86 f6ed 0800 4500
	0x0010:  003f d678 4000 3f11 278b 8115 cc9a efff
	0x0020:  fffa a564 3cf0 002b 9761 5345 4152 4348
	0x0030:  2042 5344 502f 302e 310a 4445 5649 4345
	0x0040:  3d30 0a53 4552 5649 4345 3d31 0a
2024-11-04 02:40:59.890302 IP 10.118.32.186.57621 > 10.118.255.255.57621: UDP, length 40
	0x0000:  ffff ffff ffff 8274 b310 9973 0800 4500
	0x0010:  0044 577d 0000 4011 ed86 0a76 20ba 0a76
	0x0020:  ffff e115 e115 0030 3345 5370 6f74 5564
	0x0030:  7030 644a afa4 9c08 ef18 0001 0000 8075
	0x0040:  a43b bd52 fa64 a8d3 906c 2cd4 f553 576b
	0x0050:  1db0
