2024-11-04 02:40:56.995516 IP dsp121215.rit.edu.50693 > 239.255.255.250.ws-discovery: UDP, length 760
	0x0000:  0100 5e7f fffa 30b6 4f86 f6ed 0800 4500
	0x0010:  0314 f0fc 4000 0911 80e5 0a09 02f4 efff
	0x0020:  fffa c605 0e76 0300 f68e 3c3f 786d 6c20
	0x0030:  7665 7273 696f 6e3d 2231 2e30 2220 3f3e
	0x0040:  3c73 3a45 6e76 656c 6f70 6520 786d 6c6e
	0x0050:  733a 613d 2268 7474 703a 2f2f 7363 6865
	0x0060:  6d61 732e 786d 6c73 6f61 702e 6f72 672f
	0x0070:  7773 2f32 3030 342f 3038 2f61 6464 7265
	0x0080:  7373 696e 6722 2078 6d6c 6e73 3a73 3d22
	0x0090:  6874 7470 3a2f 2f77 7777 2e77 332e 6f72
	0x00a0:  672f 3230 3033 2f30 352f 736f 6170 2d65
	0x00b0:  6e76 656c 6f70 6522 3e3c 733a 4865 6164
	0x00c0:  6572 3e3c 613a 4163 7469 6f6e 2073 3a4d
	0x00d0:  7573 7455 6e64 6572 7374 616e 643d 2231
	0x00e0:  223e 6874 7470 3a2f 2f73 6368 656d 6173
	0x00f0:  2e78 6d6c 736f 6170 2e6f 7267 2f77 732f
	0x0100:  3230 3035 2f30 342f 6469 7363 6f76 6572
	0x0110:  792f 5072 6f62 653c 2f61 3a41 6374 696f
	0x0120:  6e3e 3c61 3a4d 6573 7361 6765 4944 3e75
	0x0130:  7569 643a 3632 3431 3763 6634 2d31 3435
	0x0140:  372d 3466 3436 2d38 3039 342d 6631 3362
	0x0150:  3066 6330 3035 3433 3c2f 613a 4d65 7373
	0x0160:  6167 6549 443e 3c61 3a52 6570 6c79 546f
	0x0170:  3e3c 613a 4164 6472 6573 733e 6874 7470
	0x0180:  3a2f 2f73 6368 656d 6173 2e78 6d6c 736f
	0x0190:  6170 2e6f 7267 2f77 732f 3230 3034 2f30
	0x01a0:  382f 6164 6472 6573 7369 6e67 2f72 6f6c
	0x01b0:  652f 616e 6f6e 796d 6f75 733c 2f61 3a41
	0x01c0:  6464 7265 7373 3e3c 2f61 3a52 6570 6c79
	0x01d0:  546f 3e3c 613a 546f 2073 3a6d 7573 7455
	0x01e0:  6e64 6572 7374 616e 643d 2231 223e 7572
	0x01f0:  6e3a 7363 6865 6d61 732d 786d 6c73 6f61
	0x0200:  702d 6f72 673a 7773 3a32 3030 353a 3034
	0x0210:  3a64 6973 636f 7665 7279 3c2f 613a 546f
	0x0220:  3e3c 2f73 3a48 6561 6465 723e 3c73 3a42
	0x0230:  6f64 793e 3c50 726f 6265 2078 6d6c 6e73
	0x0240:  3d22 6874 7470 3a2f 2f73 6368 656d 6173
	0x0250:  2e78 6d6c 736f 6170 2e6f 7267 2f77 732f
	0x0260:  3230 3035 2f30 342f 6469 7363 6f76 6572
	0x0270:  7922 3e3c 643a 5479 7065 7320 786d 6c6e
	0x0280:  733a 643d 2268 7474 703a 2f2f 7363 6865
	0x0290:  6d61 732e 786d 6c73 6f61 702e 6f72 672f
	0x02a0:  7773 2f32 3030 352f 3034 2f64 6973 636f
	0x02b0:  7665 7279 2220 786d 6c6e 733a 6e77 3d22
	0x02c0:  6874 7470 3a2f 2f77 7777 2e6f 6e76 6966
	0x02d0:  2e6f 7267 2f76 6572 3130 2f6e 6574 776f
	0x02e0:  726b 2f77 7364 6c22 3e6e 773a 5153 4356
	0x02f0:  6964 656f 4465 7669 6365 3c2f 643a 5479
	0x0300:  7065 733e 3c2f 5072 6f62 653e 3c2f 733a
	0x0310:  426f 6479 3e3c 2f73 3a45 6e76 656c 6f70
	0x0320:  653e
2024-11-04 02:40:57.023148 IP 10.118.255.200 > pim-routers.mcast.net: PIMv2, Assert, length 26
	0x0000:  0100 5e00 000d 30b6 4f86 fe2d 0800 45c0
	0x0010:  002e 668d 0000 0167 67d0 0a76 ffc8 e000
	0x0020:  000d 2500 68e4 0100 0020 efff fffa 0100
	0x0030:  0000 0000 8000 0000 0000 0000
2024-11-04 02:40:57.029512 IP 8n609392l0.main.ad.rit.edu.50806 > 239.255.255.250.ws-discovery: UDP, length 656
	0x0000:  0100 5e7f fffa 64bc 588b 52f4 0800 4500
	0x0010:  02ac e4a5 0000 0111 06bb 8115 5ad1 efff
	0x0020:  fffa c676 0e76 0298 fa29 3c3f 786d 6c20
	0x0030:  7665 7273 696f 6e3d 2231 2e30 2220 656e
	0x0040:  636f 6469 6e67 3d22 7574 662d 3822 3f3e
	0x0050:  3c73 6f61 703a 456e 7665 6c6f 7065 2078
	0x0060:  6d6c 6e73 3a73 6f61 703d 2268 7474 703a
	0x0070:  2f2f 7777 772e 7733 2e6f 7267 2f32 3030
	0x0080:  332f 3035 2f73 6f61 702d 656e 7665 6c6f
	0x0090:  7065 2220 786d 6c6e 733a 7773 613d 2268
	0x00a0:  7474 703a 2f2f 7363 6865 6d61 732e 786d
	0x00b0:  6c73 6f61 702e 6f72 672f 7773 2f32 3030
	0x00c0:  342f 3038 2f61 6464 7265 7373 696e 6722
	0x00d0:  2078 6d6c 6e73 3a77 7364 3d22 6874 7470
	0x00e0:  3a2f 2f73 6368 656d 6173 2e78 6d6c 736f
	0x00f0:  6170 2e6f 7267 2f77 732f 3230 3035 2f30
	0x0100:  342f 6469 7363 6f76 6572 7922 3e3c 736f
	0x0110:  6170 3a48 6561 6465 723e 3c77 7361 3a54
	0x0120:  6f3e 7572 6e3a 7363 6865 6d61 732d 786d
	0x0130:  6c73 6f61 702d 6f72 673a 7773 3a32 3030
	0x0140:  353a 3034 3a64 6973 636f 7665 7279 3c2f
	0x0150:  7773 613a 546f 3e3c 7773 613a 4163 7469
	0x0160:  6f6e 3e68 7474 703a 2f2f 7363 6865 6d61
	0x0170:  732e 786d 6c73 6f61 702e 6f72 672f 7773
	0x0180:  2f32 3030 352f 3034 2f64 6973 636f 7665
	0x0190:  7279 2f52 6573 6f6c 7665 3c2f 7773 613a
	0x01a0:  4163 7469 6f6e 3e3c 7773 613a 4d65 7373
	0x01b0:  6167 6549 443e 7572 6e3a 7575 6964 3a33
	0x01c0:  6631 3361 6663 302d 3339 3433 2d34 6532
	0x01d0:  652d 6265 3230 2d34 6335 3130 3038 3463
	0x01e0:  6634 303c 2f77 7361 3a4d 6573 7361 6765
	0x01f0:  4944 3e3c 2f73 6f61 703a 4865 6164 6572
	0x0200:  3e3c 736f 6170 3a42 6f64 793e 3c77 7364
	0x0210:  3a52 6573 6f6c 7665 3e3c 7773 613a 456e
	0x0220:  6470 6f69 6e74 5265 6665 7265 6e63 653e
	0x0230:  3c77 7361 3a41 6464 7265 7373 3e75 726e
	0x0240:  3a75 7569 643a 6366 6539 3231 3030 2d36
	0x0250:  3763 342d 3131 6434 2d61 3435 662d 6530
	0x0260:  6262 3965 3034 6630 3161 3c2f 7773 613a
	0x0270:  4164 6472 6573 733e 3c2f 7773 613a 456e
	0x0280:  6470 6f69 6e74 5265 6665 7265 6e63 653e
	0x0290:  3c2f 7773 643a 5265 736f 6c76 653e 3c2f
	0x02a0:  736f 6170 3a42 6f64 793e 3c2f 736f 6170
	0x02b0:  3a45 6e76 656c 6f70 653e
2024-11-04 02:40:57.357072 IP rm234836162123791.wireless.rit.edu.44362 > 239.255.255.250.15600: UDP, length 35
	0x0000:  0100 5e7f fffa 30b6 4f86 f6ed 0800 4500
	0x0010:  003f 3fc2 4000 3f11 0086 8115 8a56 efff
	0x0020:  fffa ad4a 3cf0 002b d1bf 5345 4152 4348
	0x0030:  2042 5344 502f 302e 310a 4445 5649 4345
	0x0040:  3d30 0a53 4552 5649 4345 3d31 0a
2024-11-04 02:40:57.740190 IP 10.118.32.186.57621 > 10.118.255.255.57621: UDP, length 40
	0x0000:  ffff ffff ffff 8274 b310 9973 0800 4500
	0x0010:  0044 9c57 0000 4011 a8ac 0a76 20ba 0a76
	0x0020:  ffff e115 e115 0030 3345 5370 6f74 5564
	0x0030:  7030 644a afa4 9c08 ef18 0001 0000 8075
	0x0040:  a43b bd52 fa64 a8d3 906c 2cd4 f553 576b
	0x0050:  1db0
2024-11-04 02:40:57.740204 IP 10.118.32.186.57621 > 10.118.255.255.57621: UDP, length 40
	0x0000:  ffff ffff ffff 8274 b310 9973 0800 4500
	0x0010:  0044 99c9 0000 4011 ab3a 0a76 20ba 0a76
	0x0020:  ffff e115 e115 0030 3345 5370 6f74 5564
	0x0030:  7030 644a afa4 9c08 ef18 0001 0000 8075
	0x0040:  a43b bd52 fa64 a8d3 906c 2cd4 f553 576b
	0x0050:  1db0
2024-11-04 02:40:57.872141 IP 79.110.62.77.44979 > vm1.wireless.rit.edu.38079: Flags [S], seq 3536821411, win 1024, length 0
	0x0000:  0800 27ce b171 30b6 4f86 fe2d 0800 4500
	0x0010:  0028 5263 0000 f306 0c1d 4f6e 3e4d 8115
	0x0020:  5a7f afb3 94bf d2cf 9ca3 0000 0000 5002
	0x0030:  0400 8eac 0000 0000 0000 0000
2024-11-04 02:40:58.012192 IP samsung.wireless.rit.edu.49583 > 239.255.255.250.15600: UDP, length 35
	0x0000:  0100 5e7f fffa 30b6 4f86 fe2d 0800 4500
	0x0010:  003f 7a58 4000 3f11 9e15 0a73 28d3 efff
	0x0020:  fffa c1af 3cf0 002b 9580 5345 4152 4348
	0x0030:  2042 5344 502f 302e 310a 4445 5649 4345
	0x0040:  3d30 0a53 4552 5649 4345 3d31 0a
2024-11-04 02:40:58.047474 IP 10.118.5.206.51685 > 224.0.0.252.hostmon: UDP, length 22
	0x0000:  0100 5e00 00fc 36e4 07dd 4b1a 0800 4500
	0x0010:  0032 7d43 0000 0111 4b38 0a76 05ce e000
	0x0020:  00fc c9e5 14eb 001e 4ded 08bd 0000 0001
	0x0030:  0000 0000 0000 0477 7061 6400 001c 0001
2024-11-04 02:40:58.047484 IP 10.118.5.206.56494 > 224.0.0.252.hostmon: UDP, length 22
	0x0000:  0100 5e00 00fc 36e4 07dd 4b1a 0800 4500
	0x0010:  0032 7d42 0000 0111 4b39 0a76 05ce e000
	0x0020:  00fc dcae 14eb 001e a074 a387 0000 0001
	0x0030:  0000 0000 0000 0477 7061 6400 0001 0001
